S00C000047534D312E7372656300
S11300000C9488000C94A5000C94A5000C94A500F5
S11300100C94A5000C94A5000C94A5000C94A500C8
S11300200C94A5000C94A5000C94A5000C94A500B8
S11300300C94A5000C94A7000C94A5000C94080142
S11300400C94A5000C94A5000C94A5000C94A50098
S11300500C94A500616C6C6F7720736C65657020DF
S11300606D6F6465006E61206B7269767520706FC8
S113007072756B752E00506F736C616E206F6467C0
S11300806F766F72006E6120706F72756B752E00E3
S1130090506F736C616E206F64676F766F7200537C
S11300A0616C6A656D20706F72756B750072784251
S11300B075666665723A006D6F646500556C617AA9
S11300C0696D207520746578740062726F6A3A00F5
S11300D02B434D5400676F7420736D730053656E2A
S11300E06420736D7320746F2075617274004465AD
S11300F06C65746520616C6C20736D73005072655F
S11301006B696420736C656570206D6F64650000B5
S113011011241FBECFE5D8E0DEBFCDBF11E0A0E6BD
S1130120B0E0E4E5FEE002C005900D92A23AB1070A
S1130130D9F723E0A2EAB1E001C01D92A035B207CD
S1130140E1F70E9454050C9428070C9400001F92B8
S11301500F920FB60F9211242F933F934F935F93F7
S11301606F937F938F939F93AF93BF93EF93FF937B
S11301708091600081110AC060E00E9453068DEFF7
S113018090E00E94860681E080936000E091A501E2
S11301908CB1F0E0EC53FE4F8083E091A501F0E0D8
S11301A0EC53FE4F80810E946106E091A501F0E0CE
S11301B0EC53FE4F80818B3479F4E091A501F0E09B
S11301C0ED53FE4F80818F3439F48091A901813041
S11301D019F482E08093A9018091A5018F5F809337
S11301E0A5018091A5018F3F11F41092A501FF9103
S11301F0EF91BF91AF919F918F917F916F915F919B
S11302004F913F912F910F900FBE0F901F90189513
S11302101F920F920FB60F9211248F939F93EF9317
S1130220FF939091A8018091A701981791F0E09114
S1130230A801F0E0ED53FD4F80818CB98091A801B5
S11302408F5F8093A8018091A801882314F41092F1
S1130250A801FF91EF919F918F910F900FBE0F9086
S11302601F9018955D9BFECF8CB90895EF92FF9275
S11302700F931F93CF93DF938C017C01C0E0D0E0F8
S11302800FC0F70181917F010E943201FFEF24E347
S11302908CE0F15020408040E1F700C0000021963E
S11302A0F80101900020E9F73197E01BF10BCE171C
S11302B0DF0738F3DF91CF911F910F91FF90EF90FB
S11302C008958CE00E9498060E945D0681B38C61BB
S11302D081BB82B38C6182BB10BC83E389B988ED96
S11302E08AB986E880BD86B980E487B9D29AD39A60
S11302F0DB98089597B1987F97B997B1892B87B9FF
S11303003D9A369A3699FECF85B108950E945D06CE
S11303101092A6019091A6018091A501981709F465
S11303203FC08091A601811104C060E00E94530681
S11303301BC08091A601803121F08091A6018033F9
S113034029F461E080E00E9453060EC08091A6016A
S1130350803221F08091A601803431F40E945D0640
S113036060E080E00E945306E091A601F0E0EC53C7
S1130370FE4F80810E9461068091A6018F5F809369
S1130380A6012FEB85E494E0215080409040E1F7F2
S113039000C000009091A6018091A5019813C1CFDF
S11303A008951092C4011092A6011092A501089517
S11303B0949A929893980895929A949893980895F9
S11303C0CF93DF93CDB7DEB72A970FB6F894DEBF8D
S11303D00FBECDBF8AE0EEE6F0E0DE01119601909B
S11303E00D928A95E1F70E94D8010E94D1010E94E2
S11303F05D0660E080E00E9453068CEB90E00E9472
S1130400860661E080E00E94530687EB90E00E943C
S11304108606CE0101960E94360181E08093A901EF
S11304208DE00E9432012FEF83ED90E32150804054
S11304309040E1F700C0000061E084E00E945306B0
S11304408EE20E9461062FEF89E698E121508040F8
S11304509040E1F700C0000061E085E00E9453068F
S11304608EE20E9461062FEF89E698E121508040D8
S11304709040E1F700C0000061E086E00E9453066E
S11304808EE20E9461062FEF89E698E121508040B8
S11304909040E1F700C000008091A901823049F446
S11304A01092A9010E945D060E94DC0181E090E0A7
S11304B01CC00E945D062FEF84E39CE02150804025
S11304C09040E1F700C000008DEA90E00E948606AB
S11304D02FEF84E39CE0215080409040E1F700C07E
S11304E000000E94860180E090E02A960FB6F894FE
S11304F0DEBF0FBECDBFDF91CF910895939A94983C
S113050092980895F8948FB583628FBD8EB58861F3
S11305108EBD87EE93E09BBD8ABD8DE491E099BDCD
S113052088BD89B7806189BF8EB583608EBD0E9406
S1130530D8012FEF89E698E1215080409040E1F7FF
S113054000C000000E947E028CE893E099BD88BD43
S11305502FEF89E698E1215080409040E1F700C0F8
S113056000008AE992E099BD88BD2FEF89E698E101
S1130570215080409040E1F700C000008DE491E0FC
S113058099BD88BD0E947E022FEF89E698E1215033
S113059080409040E1F700C000000E94DC0183E647
S11305A090E099BD88BD2FEF89E698E12150804005
S11305B09040E1F700C000008DE491E099BD88BD52
S11305C02FEF89E698E1215080409040E1F700C088
S11305D000001FBC1EBC1BBC1ABC8EB58D7F8EBD1B
S11305E08EB58E7F8EBD89B78F7E89BF81B38C61B6
S11305F081BB82B38C6182BB78940895FF920F9380
S11306001F93CF93DF93CDB7DEB763970FB6F894FC
S1130610DEBF0FBECDBF89E0EAE3F1E0DE01119653
S113062001900D928A95E1F766E071E084EC91E027
S11306300E94D906892B09F4C0C061E080E00E94C1
S1130640530681E00E947A01F82E28EC2817C8F49A
S11306508091A401882371F120E030E0F901E9548C
S1130660FE4F8081F901ED5BFC4F80832F5F3F4F8C
S11306702D30310599F781E08093A20105EC10E05B
S11306801EC08091A401811118C020E030E0F9015E
S1130690E954FE4F9081F901ED5BFC4F90832F5F8D
S11306A03F4F2D30310599F781E08093A20106EE8A
S11306B010E005C001E011E002C001EE10E00E946C
S11306C0D1014AE0BE01665F7F4F8F2D90E00E940A
S11306D0F3060E945D0660E080E00E9453068FE905
S11306E090E00E94860661E080E00E94530687EB5A
S11306F091E00E947606CE0101960E94360182E2C4
S11307000E94320187EB91E00E94360182E20E944E
S113071032018FEF99E628E1815090402040E1F7C3
S113072000C000008DE00E9432018FEF99E628E1BD
S1130730815090402040E1F700C000008BE091E040
S11307400E943601CE010A960E943601C8010E9419
S113075036018AE10E9432018FEF9DE329E4815042
S113076090402040E1F700C000000E947E020E94F9
S11307705D0660E080E00E94530680E990E00E94FC
S1130780860661E080E00E94530685E890E00E94BE
S113079086068FEF93ED20E3815090402040E1F7EF
S11307A000C000000E9486010E94DC010E945D06D8
S11307B060E080E00E94530686C06FE171E084EC43
S11307C091E00E94D906892BE9F08091A201882347
S11307D009F479C063E473E087EB91E00E94D006EA
S11307E0892B09F070C08091A401811105C0DA9AA7
S11307F081E08093A40103C0DA981092A4011092BE
S1130800A20161C062E271E084EC91E00E94D90629
S1130810892B19F00E94820256C00E94D101CE0198
S113082001960E94360182E20E94320187EB91E038
S11308300E94360182E20E9432018FEF99E628E19C
S1130840815090402040E1F700C000008DE00E94FC
S113085032018FEF99E628E1815090402040E1F782
S113086000C0000087E291E00E9436018AE10E9404
S113087032018FEF9DE329E4815090402040E1F75D
S113088000C000000E947E020E945D0660E080E0DD
S11308900E94530686E790E00E94860661E080E0AD
S11308A00E94530685E690E00E9486068FEF93ED42
S11308B020E3815090402040E1F700C000000E94F6
S11308C086010E94DC0163960FB6F894DEBF0FBE6A
S11308D0CDBFDF91CF911F910F91FF900895CF93DA
S11308E0DF931F92CDB7DEB719821092AA0110923E
S11308F0B7011092A30163E471E084EC91E00E94DB
S1130900D906892B09F48BC00E945D0680ED90E026
S11309100E94860661E080E00E9453068AEC90E023
S11309200E9486069091A6018091A501981709F46A
S11309303FC021E032E0E091A601F0E0ED53FE4F2C
S11309408081823221F48981811101C029838981C6
S11309508130B9F4E091A301F0E0A091A601B0E0E8
S1130960AC53BE4F8C91E655FE4F8083E091A301BA
S1130970F0E0E555FE4F10828091A3018F5F8093D4
S1130980A301E091A601F0E0EC53FE4F8181823295
S113099021F48981813009F439838091A6018F5F24
S11309A08093A6019091A6018091A5019813C3CFCD
S11309B061E080E00E9453068AEA91E00E94760694
S11309C02FEF8DE399E4215080409040E1F700C07F
S11309D000001092A3018091A3018E30A9F0E09150
S11309E0A301F0E0A091A301B0E0A655BE4F8C9105
S11309F0E954FE4F80838091A3018F5F8093A3010C
S1130A008091A3018E3059F70E94FE022FEF81E1FD
S1130A109AE7215080409040E1F700C000000F9019
S1130A20DF91CF910895CF93DF93CDB7DEB72A97A7
S1130A300FB6F894DEBF0FBECDBF8AE0ECE7F1E05D
S1130A40DE01119601900D928A95E1F70E94D10181
S1130A500E945D0684E590E00E948606CE01019620
S1130A600E9436018DE00E9432012FEF81E19AE766
S1130A70215080409040E1F700C000000E945D06D4
S1130A800E9486012FEF89E698E121508040904032
S1130A90E1F700C000002A960FB6F894DEBF0FBE3F
S1130AA0CDBFDF91CF910895CF93DF93CDB7DEB75C
S1130AB06C970FB6F894DEBF0FBECDBF0E946101E4
S1130AC078940E94E001892BE1F38CE0E6E8F1E000
S1130AD0DE01119601900D928A95E1F78EEE90E079
S1130AE00E948606CE0101960E9436018DE00E9486
S1130AF032012FEF87EA91E6215080409040E1F7E0
S1130B0000C0000080E1E2E9F1E0DE011D96019001
S1130B100D928A95E1F70E945D068DED90E00E94AA
S1130B208606CE010D960E9436018DE00E943201A8
S1130B302FEF83ED90E3215080409040E1F700C017
S1130B4000000E9413052FEF8DE399E421508040AB
S1130B509040E1F700C000000E945D061092600022
S1130B600E94D101DB9A1FEF809160008130E1F790
S1130B702FEF81E19AE7215080409040E1F700C0D7
S1130B8000000E945D0685ED90E00E9486062FEF2E
S1130B908DE399E4215080409040E1F700C00000CB
S1130BA00E946F04109360000E9413052FEF8DE3E1
S1130BB099E4215080409040E1F700C000000E9479
S1130BC05D0610926000D0CF979A00C09798089560
S1130BD0CF93C82F662311F0959A01C095989698E3
S1130BE0D49AD59AD69AD79ADF98DE98DD98DC986D
S1130BF0CC230CF4DF9AC6FDDE9AC5FDDD9AC4FD54
S1130C00DC9A0E94E405DF98DE98DD98DC98C3FD49
S1130C10DF9AC2FDDE9AC1FDDD9AC0FDDC9A0E9416
S1130C20E405DC9ADD9ADE9ADF9ACF910895882351
S1130C3011F0959A01C09598969AD498D598D6981B
S1130C40D798979A00C0CC9902C080E001C080E197
S1130C50CD998062CE998064CF998068979800C0BE
S1130C60979A00C0CC998160CD998260CE998460B6
S1130C70CF9988609798089580E00E94170688238A
S1130C80DCF383E090E00197F1F780E00E9417061F
S1130C900895CF93C82F0E943C0660E08C2F0E94D9
S1130CA0E805CF910895611104C080580E94490657
S1130CB0089580540E944906089581E00E944906DF
S1130CC00895CF93C82F0E943C06CA3049F480345B
S1130CD010F480E401C080E080580E94490604C0FA
S1130CE061E08C2F0E94E805CF910895CF93DF93A4
S1130CF0EC012196FC018081882329F00E94610681
S1130D0089918111FBCFDF91CF910895CF93DF9328
S1130D10EC012196FC018491882339F00E9461063C
S1130D20FE01849121968111F9CFDF91CF9108952D
S1130D30CF93C82F8D9A8E9A8F9AD49AD59AD69A91
S1130D40D79AE0E3F3E73197F1F7DD9ADC9A0E9452
S1130D50E405E0EFF3E23197F1F70E94E405E5E7FB
S1130D60F0E03197F1F70E94E405E5E7F0E0319710
S1130D70F1F7DC980E94E405E5E7F0E03197F1F73C
S1130D8088E20E94490688E00E9449060E945D06A6
S1130D9086E00E9449068C2F0E944906CF9108954F
S1130DA0FB01DC018D91019080190110D9F3990B9D
S1130DB00895FB0151915523A9F0BF01DC014D9128
S1130DC045174111E1F759F4CD010190002049F094
S1130DD04D9140154111C9F3FB014111EFCF81E061
S1130DE090E001970895BB274A3031F4992322F407
S1130DF0BDE2909581959F4F0C94FF06BB27FB01A4
S1130E005527AA27880F991FAA1FA41710F0A41BFF
S1130E1083955051B9F7A05DAA3308F0A95DA19359
S1130E20009779F7B111B1931192CB010C94180783
S1130E30DC01FC01672F71917723E1F7329704C03D
S1130E407C916D9370836291AE17BF07C8F30895C8
S1070E50F894FFCF40
S1130E54FF6272200041542B434D47443D004154EA
S1130E642B434D47463D31002B434D5320455252AD
S1130E744F523A20333231006E656D6120706F72C7
S1130E84756B65002B53494E44002B434D53204549
S1130E9452524F523A002B434D45204552524F5221
S1130EA43A004F4B00554E524541440041542B43A4
S1130EB44D47523D002064616E2E2055676173696D
S1130EC474692073766A65746C6F284441293F20E1
S1130ED400206E6F6300206E6F632E205570616C6A
S1130EE46974692073766A65746C6F284441293F78
S1130EF4002064616E004C55583F00696E74656E41
S1130F047A6974657420697A6E6F73693A2000444F
S1130F14410044554741004B72697661206B6F640C
S1130F246E612072696A65632E0041542B434D47F8
S1130F34533D002B434D543A003338353939363850
S1130F443334303530004C554B533F0044554741FE
S1130F543F00617465310061742B63636C6B3F0003
S1130F6461742B6366756E3D312C310041542B53EF
S1130F7433324B3D310041542B434D47443D312CD6
S1130F84340041542B434E4D493D332C332C302CE7
S1050F94300027
S9030000FC
